:020000040800F2
:10000000000002208D570008DD5700082925000850
:10001000DD570008372500084525000800000000CE
:10002000000000000000000000000000B1260008F1
:10003000DD57000800000000412700086940000863
:10004000DD570008DD570008DD570008DD570008C0
:10005000DD570008DD5700086141000867410008CE
:100060006D4100087341000879410008DD57000820
:10007000DD570008DD570008DD570008DD57000890
:10008000DD570008DD570008DD570008DD57000880
:10009000DD570008DD570008DD5700087F410008E4
:1000A000513D0008693C0008653D00088D3C000892
:1000B000A13C0008B53C0008C93C0008DD57000819
:1000C000DD570008DD570008DD570008DD57000840
:1000D000DD5700082D4F0008454F0008614F00080C
:1000E00095410008DD570008DD570008793D0008FC
:1000F000193D00088D3D00083D3D0008DD57000812
:10010000DD570008DD570008DD3C0008DD5700081A
:100110007D4F0008954F0008F13C0008053D0008A0
:10012000DD570008DD570008DD570008DD570008DF
:10013000DD570008DD570008DD570008DD570008CF
:10014000DD570008DD570008DD570008DD570008BF
:10015000DD570008DD570008DD570008AD4F0008E7
:10016000DD570008DD570008DD570008DD5700089F
:10017000DD570008DD570008DD57000800000000CB
:08018000DD570008DD570008FF
:1001900010F8012B11F8013B012A28BF9A42F7D031
:1001A000D01A7047034613F8012B002AFBD1181A06
:1001B000013870470000000000000000000000004F
:1001C00001F0FF01102A2BDB10F0070F08D010F808
:1001D000013B013A8B422DD010F0070F42B3F6D10C
:1001E000F0B441EA012141EA014122F007047FF025
:1001F00000070023F0E80256083C85EA010586EA7C
:10020000010685FA47F5A3FA87F586FA47F6A5FAB7
:1002100087F68EB9EED1F0BC01F0FF0102F00702C3
:1002200032B110F8013B013A83EA010313B1F8D16E
:100230000020704701387047002D06BF354603384F
:10024000073815F0010F07D1013015F4807F02BF88
:10025000013015F4C03F0130F0BC0138704700BFD9
:1002600081F0004102E000BF83F0004330B54FEA67
:1002700041044FEA430594EA050F08BF90EA020FD4
:100280001FBF54EA000C55EA020C7FEA645C7FEA67
:10029000655C00F0E2804FEA5454D4EB5555B8BF8A
:1002A0006D420CDD2C4480EA020281EA030382EAFB
:1002B000000083EA010180EA020281EA0303362D8D
:1002C00088BF30BD11F0004F4FEA01314FF4801C60
:1002D0004CEA113102D0404261EB410113F0004F72
:1002E0004FEA03334CEA133302D0524263EB430329
:1002F00094EA050F00F0A780A4F10104D5F1200EC7
:100300000DDB02FA0EFC22FA05F2801841F1000121
:1003100003FA0EF2801843FA05F359410EE0A5F1F5
:1003200020050EF1200E012A03FA0EFC28BF4CF026
:10033000020C43FA05F3C01851EBE37101F00045DC
:1003400007D54FF0000EDCF1000C7EEB00006EEBE9
:100350000101B1F5801F1BD3B1F5001F0CD3490873
:100360005FEA30004FEA3C0C04F101044FEA4452CA
:1003700012F5800F80F09A80BCF1004F08BF5FEA51
:10038000500C50F1000041EB045141EA050130BD31
:100390005FEA4C0C404141EB0101013C28BFB1F543
:1003A000801FE9D291F0000F04BF01460020B1FA8E
:1003B00081F308BF2033A3F10B03B3F120020CDA61
:1003C0000C3208DD02F1140CC2F10C0201FA0CF03F
:1003D00021FA02F10CE002F11402D8BFC2F1200CA4
:1003E00001FA02F120FA0CFCDCBF41EA0C0190405A
:1003F000E41AA2BF01EB0451294330BD6FEA0404A3
:100400001F3C1CDA0C340EDC04F11404C4F120028D
:1004100020FA04F001FA02F340EA030021FA04F39F
:1004200045EA030130BDC4F10C04C4F1200220FAF6
:1004300002F001FA04F340EA0300294630BD21FA34
:1004400004F0294630BD94F0000F83F4801306BFFA
:1004500081F480110134013D4EE77FEA645C18BFEE
:100460007FEA655C29D094EA050F08BF90EA020F85
:1004700005D054EA000C04BF1946104630BD91EA7D
:10048000030F1EBF0021002030BD5FEA545C05D180
:100490004000494128BF41F0004130BD14F58004BF
:1004A0003CBF01F5801130BD01F0004545F0FE4133
:1004B00041F470014FF0000030BD7FEA645C1ABF68
:1004C000194610467FEA655C1CBF0B46024650EA9F
:1004D000013406BF52EA033591EA030F41F40021CB
:1004E00030BD00BF90F0000F04BF0021704730B551
:1004F0004FF4806404F132044FF000054FF0000126
:1005000050E700BF90F0000F04BF0021704730B5E6
:100510004FF4806404F1320410F0004548BF4042BB
:100520004FF000013EE700BF42004FEAE2014FEA10
:1005300031014FEA02701FBF12F07F4393F07F4FEB
:1005400081F06051704732F07F4208BF704793F0EE
:100550007F4F04BF41F40021704730B54FF4607401
:1005600001F0004521F000411CE700BF50EA010204
:1005700008BF704730B54FF000050AE050EA0102AD
:1005800008BF704730B511F0004502D5404261EB1D
:1005900041014FF4806404F132045FEA915C3FF45E
:1005A000D8AE4FF003025FEADC0C18BF03325FEAFB
:1005B000DC0C18BF033202EBDC02C2F1200300FAAC
:1005C00003FC20FA02F001FA03FE40EA0E0021FAD1
:1005D00002F11444BDE600BF70B54FF0FF0C4CF4BF
:1005E000E06C1CEA11541DBF1CEA135594EA0C0F71
:1005F00095EA0C0F00F0DEF82C4481EA030621EAAC
:100600004C5123EA4C5350EA013518BF52EA0335E6
:1006100041F4801143F4801338D0A0FB02CE4FF098
:100620000005E1FB02E506F00042E0FB03E54FF0C8
:100630000006E1FB03569CF0000F18BF4EF0010EC0
:10064000A4F1FF04B6F5007F64F5407404D25FEABC
:100650004E0E6D4146EB060642EAC62141EA55516F
:100660004FEAC52040EA5E504FEACE2EB4F1FD0CB1
:1006700088BFBCF5E06F1ED8BEF1004F08BF5FEA2F
:10068000500E50F1000041EB045170BD06F00046E1
:1006900046EA010140EA020081EA0301B4EB5C048E
:1006A000C2BFD4EB0C0541EA045170BD41F4801186
:1006B0004FF0000E013C00F3AB8014F1360FDEBFAB
:1006C000002001F0004170BDC4F10004203C35DA87
:1006D0000C341BDC04F11404C4F1200500FA05F30A
:1006E00020FA04F001FA05F240EA020001F00042AB
:1006F00021F0004110EBD37021FA04F642EB060121
:100700005EEA430E08BF20EAD37070BDC4F10C044A
:10071000C4F1200500FA04F320FA05F001FA04F20E
:1007200040EA020001F0004110EBD37041F10001FA
:100730005EEA430E08BF20EAD37070BDC4F1200505
:1007400000FA05F24EEA020E20FA04F301FA05F26D
:1007500043EA020321FA04F001F0004121FA04F215
:1007600020EA020000EBD3705EEA430E08BF20EAE5
:10077000D37070BD94F0000F0FD101F0004640001F
:1007800041EB010111F4801F08BF013CF7D041EAA1
:10079000060195F0000F18BF704703F000465200A5
:1007A00043EB030313F4801F08BF013DF7D043EA76
:1007B0000603704794EA0C0F0CEA135518BF95EA2C
:1007C0000C0F0CD050EA410618BF52EA4306D1D1B3
:1007D00081EA030101F000414FF0000070BD50EAD2
:1007E000410606BF1046194652EA430619D094EA5C
:1007F0000C0F02D150EA013613D195EA0C0F05D146
:1008000052EA03361CBF104619460AD181EA030199
:1008100001F0004141F0FE4141F470014FF0000051
:1008200070BD41F0FE4141F4780170BD70B54FF0EC
:10083000FF0C4CF4E06C1CEA11541DBF1CEA13556C
:1008400094EA0C0F95EA0C0F00F0A7F8A4EB05044E
:1008500081EA030E52EA03354FEA013100F0888045
:100860004FEA03334FF0805545EA131343EA12630E
:100870004FEA022245EA111545EA10654FEA0026C3
:100880000EF000419D4208BF964244F1FD0404F57C
:10089000407402D25B084FEA3202B61A65EB0305D8
:1008A0005B084FEA32024FF480104FF4002CB6EB95
:1008B000020E75EB030E22BFB61A754640EA0C0015
:1008C0005B084FEA3202B6EB020E75EB030E22BF55
:1008D000B61A754640EA5C005B084FEA3202B6EB96
:1008E000020E75EB030E22BFB61A754640EA9C0055
:1008F0005B084FEA3202B6EB020E75EB030E22BF25
:10090000B61A754640EADC0055EA060E18D04FEAE2
:10091000051545EA16754FEA06164FEAC30343EA82
:1009200052734FEAC2025FEA1C1CC0D111F4801F4F
:100930000BD141EA00014FF000004FF0004CB6E748
:1009400011F4801F04BF01430020B4F1FD0C88BFE7
:10095000BCF5E06F3FF6AFAEB5EB030C04BFB6EBF2
:10096000020C5FEA500C50F1000041EB045170BDE5
:100970000EF0004E4EEA113114EB5C04C2BFD4EB12
:100980000C0541EA045170BD41F480114FF0000E96
:10099000013C90E645EA060E8DE60CEA135594EA12
:1009A0000C0F08BF95EA0C0F3FF43BAF94EA0C0F15
:1009B0000AD150EA01347FF434AF95EA0C0F7FF48A
:1009C00025AF104619462CE795EA0C0F06D152EADE
:1009D00003353FF4FDAE1046194622E750EA4106C2
:1009E00018BF52EA43067FF4C5AE50EA41047FF4D3
:1009F0000DAF52EA43057FF4EBAE12E74FF0FF3C38
:100A000006E000BF4FF0010C02E000BF4FF0010C08
:100A10004DF804CD4FEA410C7FEA6C5C4FEA430C81
:100A200018BF7FEA6C5C1BD001B050EA410C0CBFD0
:100A300052EA430C91EA030F02BF90EA020F002032
:100A4000704710F1000F91EA030F58BF994208BF99
:100A500090422CBFD8176FEAE37040F00100704756
:100A60004FEA410C7FEA6C5C02D150EA013C07D1AD
:100A70004FEA430C7FEA6C5CD6D152EA033CD3D0F8
:100A80005DF8040B704700BF8446104662468C46F2
:100A90001946634600E000BF01B5FFF7B7FF002825
:100AA00048BF10F1000F01BD4DF808EDFFF7F4FF4E
:100AB0000CBF012000205DF808FB00BF4DF808EDD9
:100AC000FFF7EAFF34BF012000205DF808FB00BFFC
:100AD0004DF808EDFFF7E0FF94BF012000205DF81E
:100AE00008FB00BF4DF808EDFFF7CEFF94BF0120D3
:100AF00000205DF808FB00BF4DF808EDFFF7C4FFCC
:100B000034BF012000205DF808FB00BF4A0011D26D
:100B100012F5001211D20DD56FF47873B3EB625257
:100B20000ED44FEAC12343F0004343EA505323FA63
:100B300002F070474FF00000704750EA013002D1D8
:100B40004FF0FF3070474FF00000704753B94AB97B
:100B5000002908BF00281CBF4FF0FF314FF0FF30C5
:100B600000F00CB8ADF1080C6DE904CE07F082FE80
:100B7000DDF804E0DDE9022304B07047704700BFF0
:100B800010B5054C237833B9044B13B10448AFF3C7
:100B900000800123237010BD8402002000000000AB
:100BA000388B000808B5034B1BB103490348AFF36A
:100BB000008008BD0000000088020020388B00087B
:100BC00008B5064E064D074C20463246294600F031
:100BD000A1FA012001F016F9F6E700BF6C0300202E
:100BE000CC040020AC0200201FB5364D364E374CE9
:100BF00095F85530002B62D03549204604F0A7FC0B
:100C0000294601A804F078FD01A9204604F0B6FCAD
:100C100001A804F00EFD2F49204604F098FC2E494F
:100C200001A804F069FD01A9204604F0A7FC01A871
:100C300004F0FFFC2949204604F089FC284901A85A
:100C400004F05AFD01A9204604F098FC01A804F024
:100C5000F0FC2449204604F07AFC234901A804F062
:100C60004BFD01A9204604F089FC01A804F0E1FC39
:100C70001E49204604F06BFC1D4901A804F03CFD10
:100C800001A9204604F07AFC01A804F0D2FC19491D
:100C9000204604F05CFC184901A804F02DFD01A9D0
:100CA000204604F06BFC01A804F0C3FC1349204665
:100CB00004F06EFC42F2107001F0A4F898E731469F
:100CC000F5E700BFAC020020A08B00086C030020F9
:100CD000508B00085B8B0008B8020020678B00086F
:100CE000C40200206E8B0008D0020020758B000823
:100CF000DC020020808B0008E8020020888B0008BE
:100D000008B5084C084D94F854302946204633B9AC
:100D100000F0D0F841F2883001F074F8F3E700F009
:100D2000CFF8F7E7AC020020CC04002013B5012176
:100D30003F2004F055FD184806224FF4E13104F03D
:100D400085FB164806224FF4E13104F07FFB0124B5
:100D5000134B01931349009400234FF480721248FF
:100D600000F0DCFD114B12491248CDE900434FF46D
:100D70008072002300F0D2FD0F4B10491048CDE9DE
:100D800000434FF48072002300F0C8FD02B0BDE8BC
:100D9000104000F0C7BE00BFCC0400206C03002050
:100DA000A4020020BA8B0008E90B0008A80200206A
:100DB000C48B0008C10B0008A0020020D08B0008E3
:100DC000010D00087047000008B5074907480022D8
:100DD00004F0D8FA06490748002204F0D3FABDE827
:100DE0000840054800F010B800480040CC0400203E
:100DF000004400406C030020AC020020014800F0D9
:100E00003BB800BFAC02002038B51A4D0446294655
:100E100004F051FC294604F10C0004F04CFC294676
:100E200004F1180004F047FC294604F1240004F002
:100E300042FC294604F1300004F03DFC294604F14F
:100E40003C0004F038FC294604F1480004F033FC6F
:100E5000002384F8583084F85430A4F8563084F8CD
:100E60005530204684F8BD3084F8BE3084F8BF3059
:100E700038BD00BF298C000810B50446483004F086
:100E8000D8FB04F13C0004F0D4FB04F1300004F082
:100E9000D0FB04F1240004F0CCFB04F1180004F0B2
:100EA000C8FB04F10C0004F0C4FB204604F0C1FBB5
:100EB000204610BD0846014904F06ABBDE8B0008DD
:100EC0000846014904F064BBE98B00080021A0F842
:100ED00056106422593005F0D2BD7FB5044601A8F2
:100EE00016461D4604F008FC01A9204604F0F5FB57
:100EF00001A804F09EFB314601A804F0FDFB01A906
:100F000004F10C0004F0E9FB01A804F092FB29466F
:100F100001A804F0F1FB01A904F1180004F0DDFBC5
:100F200001A804F086FB089901A804F0E5FB01A9DB
:100F300004F1240004F0D1FB01A804F07AFB099924
:100F400001A804F0D9FB01A904F1300004F0C5FBAD
:100F500001A804F06EFB0A9901A804F0CDFB01A9D9
:100F600004F13C0004F0B9FB01A804F062FB04B0FA
:100F700070BD0000F0B50546AFB00846644905F005
:100F800099FD044600287ED004F0E0FC214604A828
:100F900004F091FB5E49002005F08CFD00286FD025
:100FA00006782BAC04A9204604F0A6FB3146204667
:100FB00004F0D0FB014607A804F09EFB204604F095
:100FC00038FB5349002005F075FD0646002854D033
:100FD00004F0BCFC31460AA804F06DFB4C4900202B
:100FE00005F068FD002845D006780AA9204604F0DF
:100FF00083FB3146204604F0ADFB01460DA804F00A
:101000007BFB204604F015FB4149002005F052FD12
:10101000064660B304F09DFC314610A804F04BFB7B
:101020003B49002005F046FD0646E8B104F08EFC81
:10103000314613A804F03FFB3549002005F03AFD86
:10104000064670B104F082FC314616A804F033FB6A
:101050002F49002005F02EFD0646B0B916A804F071
:10106000E8FA13A804F0E5FA10A804F0E2FA0DA8D3
:1010700004F0DFFA0AA804F0DCFA07A804F0D9FAB1
:1010800004A804F0D6FA2FB0F0BD04F05FFC31469E
:1010900019A804F010FB07A91CA804F02DFB0DA94A
:1010A0001FA804F029FB25AE10A922A804F024FBF8
:1010B00028AF13A9304604F01FFB16A9384604F0E8
:1010C0001BFB19A9204604F017FB22AB1FAA1CA981
:1010D0002846CDE901740096FFF7FFFE204604F094
:1010E000A8FA384604F0A5FA304604F0A2FA22A87D
:1010F00004F09FFA1FA804F09CFA1CA804F099FAC7
:10110000012385F8553019A804F093FAA6E700BF2B
:10111000F58B00080B6870B51B69044608460D4640
:101120001646984700284CD02B6828465B6998479C
:10113000C3B20A2B84F8583001D00D2B39D1254683
:1011400015F8593F2B2B10D12946304604F020FAD0
:101150001C49284605F0AEFC1B49FFF719F820B9D9
:1011600004F164012046FFF705FF18492846FFF700
:101170000FF810B9012384F8BD3015492846FFF750
:1011800007F820B113492846FFF702F860B994F830
:10119000BD304BB11049304604F0FAF9012384F810
:1011A0005430002384F8BD302046BDE87040FFF77E
:1011B0008DBEB4F85620A118013281F85930A4F838
:1011C000562070BDF78B0008EB8B0008DE8B000803
:1011D000F98B0008FC8B0008028C000800F1080362
:1011E0004FF0FF32C0E90223436003610023036034
:1011F000704700230361704743684B609A688A60B8
:10120000516099600368086101330360704730B52D
:101210000C68631C0AD103695A684A6091608B604C
:101220005960036808610133036030BD00F10802B2
:10123000134652681568A542FAD9EDE7D0E90112C4
:1012400003698A6051605968814208BF5A60002270
:1012500002611A68013A1A601868704710B50446AE
:1012600001F038FAA46B01F055FAB4FA84F04009A1
:1012700010BD70B51646026C856B044642B906680F
:101280009EB9806800F0FAFEA6600135A56370BDC6
:101290006EB9406805F03BFD6368226C1344A26898
:1012A0006360934224BF236863600020EDE7C06859
:1012B00005F02DFD226CE36851429B1A2268E36021
:1012C00093423EBFA3685B18E360022EEDD10DB1DF
:1012D000013DEAE72846D8E7034610B41A6C0846F1
:1012E0006AB1DC68996814448C4228BF1968DC60D4
:1012F00028BFD960D9685DF8044B05F008BD5DF8DA
:10130000044B704770B5044601F0E4F994F8455079
:1013100004F124066DB2002D01DD636AB3B9FF2329
:1013200084F8453001F0F6F901F0D4F994F844500E
:1013300004F110066DB2002D01DD23697BB9FF2396
:1013400084F84430BDE8704001F0E4B9304600F064
:10135000F5FD08B100F07CFE013D6DB2DBE73046E3
:1013600000F0ECFD08B100F073FE013D6DB2E2E764
:1013700038B50D46044640B94FF0500383F3118849
:10138000BFF36F8FBFF34F8FFEE701F0A3F9D4E9EE
:101390000F31226862604B43D0185B1A1A44A06078
:1013A000FF230020A063E26084F8443084F84530D5
:1013B000A5B9236973B104F1100000F0BFFD48B175
:1013C0004FF0E0234FF08052C3F8042DBFF34F8F4E
:1013D000BFF36F8F01F09EF9012038BD04F11000BA
:1013E000FFF7FCFE04F12400FFF7F8FEF2E7F8B582
:1013F0000D461746064640B94FF0500383F3118857
:10140000BFF36F8FBFF34F8FFEE74843503001F0BB
:10141000F5F8044658B165B100F15003C4E90F6511
:10142000236001212046FFF7A3FF84F84C7020467B
:10143000F8BD0346F2E72DE9FF410F4601921E4633
:10144000044640B94FF0500383F31188BFF36F8F08
:10145000BFF34F8FFEE751B9036C43B14FF0500318
:1014600083F31188BFF36F8FBFF34F8FFEE7022E18
:101470000BD1E36B012B08D04FF0500383F311889D
:10148000BFF36F8FBFF34F8FFEE700F0E7FD054618
:1014900020B300254FF0000801F01CF9A26BE36BAC
:1014A0009A4227D2324639462046FFF7E2FE636A67
:1014B0001BB104F1240000F041FD48B14FF0E023DE
:1014C0004FF08052C3F8042DBFF34F8FBFF36F8FDF
:1014D00001F020F9012004B0BDE8F081019B002B50
:1014E000D8D04FF0500383F31188BFF36F8FBFF351
:1014F0004F8FFEE7022ED5D0019B1BB901F00AF9F0
:101500000020E8E715B902A800F05AFD01F002F941
:1015100000F054FB01F0DEF894F84430FF2B08BFD4
:1015200084F8448094F84530FF2B08BF84F8458048
:1015300001F0F0F801A902A800F04EFD38BB01F05F
:10154000C9F8A26BE36B9A420ED101F0E3F801995E
:1015500004F1100000F0BAFC2046FFF7D3FE00F0C3
:10156000DBFB48B1012597E701F0D4F82046FFF7EF
:10157000C9FE00F0D1FBF5E74FF0E0234FF08052B9
:10158000C3F8042DBFF34F8FBFF36F8FEAE72046F8
:10159000FFF7B8FE00F0C0FBB2E72DE9F84389463B
:1015A00017461E46044640B94FF0500383F3118896
:1015B000BFF36F8FBFF34F8FFEE751B9036C43B199
:1015C0004FF0500383F31188BFF36F8FBFF34F8F3A
:1015D000FEE7022E0BD1E36B012B08D04FF0500336
:1015E00083F31188BFF36F8FBFF34F8FFEE701F0D6
:1015F00083F9EFF311884FF0500383F31188BFF3A1
:101600006F8FBFF34F8FA26BE36B9A4201D3022E11
:101610001ED194F84550A36B6DB232464946204620
:10162000FFF727FE6B1C0ED1636A3BB104F1240067
:1016300000F084FC10B10FB101233B60012088F35E
:101640001188BDE8F88301356DB284F84550F5E79F
:101650000020F4E72DE9FF410E460192044640B90F
:101660004FF0500383F31188BFF36F8FBFF34F8F99
:10167000FEE751B9036C43B14FF0500383F3118877
:10168000BFF36F8FBFF34F8FFEE700F0E7FC054617
:1016900018B300254FF0000801F01CF8A76B47B302
:1016A00031462046013FFFF717FEA763236973B158
:1016B00004F1100000F042FC48B14FF0E0234FF07D
:1016C0008052C3F8042DBFF34F8FBFF36F8F01F02B
:1016D00021F8012004B0BDE8F081019B002BD9D096
:1016E0004FF0500383F31188BFF36F8FBFF34F8F19
:1016F000FEE7019B1BB901F00DF80020EAE715B9E0
:1017000002A800F05DFC01F005F800F057FA00F0C7
:10171000E1FF94F84430FF2B08BF84F8448094F82C
:101720004530FF2B08BF84F8458000F0F3FF01A986
:1017300002A800F051FC00BB2046FFF78FFDB0B1BE
:10174000019904F1240000F0C1FB2046FFF7DAFD07
:1017500000F0E2FA48B94FF0E0234FF08052C3F8AE
:10176000042DBFF34F8FBFF36F8F012594E7204601
:10177000FFF7C8FD00F0D0FAF7E72046FFF7C2FDFB
:1017800000F0CAFA2046FFF769FD0028EDD0B4E763
:1017900030B5074A002352F8335002EBC3041DB999
:1017A00042F83310606030BD0133082BF3D1FAE703
:1017B0002C06002070B504460D46164600F08AFF40
:1017C00094F84430FF2B04BF002384F8443094F88D
:1017D0004530FF2B04BF002384F8453000F09AFF0A
:1017E000A36B2BB93246294604F1240000F088FB94
:1017F0002046BDE87040FFF785BD0000F8B51A4BE4
:101800001A4D1C680646286804300F46FFF716FD7F
:1018100040B92A681649D06A0B680122824023EA3F
:1018200002030B60731C07D137B129681148BDE86A
:10183000F8400431FFF7E0BC2B68A4195C6007D3C3
:101840000D4B18682968BDE8F8400431FFF7DFBC8C
:101850000A4B186829680431FFF7D9FC084B1A684D
:10186000A24288BF1C60F8BD9006002094070020AB
:101870008C06002098060020D8060020DC060020F8
:101880007406002080B5184D184F194E2B6883B987
:10189000184B1B68012B09D94FF0E0234FF0805201
:1018A000C3F8042DBFF34F8FBFF36F8F00F036FEE8
:1018B000EBE700F00FFFFB68DC68201DFFF7BEFCC4
:1018C0003368013B33602B68013B2B6000F022FF43
:1018D00004F1580005F05AF9206B00F091FE204603
:1018E00000F08EFED2E700BFAC060020B00600205C
:1018F0009406002008070020064A13681968064B62
:1019000019B94FF0FF321A6070471268D268D26876
:101910005268F8E7DC060020740600202DE9F84F35
:10192000960007463046DDF82C900D46984600F0AC
:1019300065FE824618B94FF0FF30BDE8F88F4FF4CE
:10194000C07000F05BFE0446002800F0C580C0F8BF
:1019500030A03246A521504605F091F8236B043E95
:101960001E4426F00706002D00F0A8806B1E04F12F
:1019700033020F3513F8011F02F8011F09B1AB4202
:10198000F8D1002384F843300A9D062D28BF062590
:101990004FF0000B04F1040AE562E5645046C4F818
:1019A00050B0FFF726FCC5F1070504F11800FFF75A
:1019B00020FCC4F878B14FF4907259462461A561B7
:1019C000646284F87CB104F1580005F058F8444B87
:1019D000E36503F16802D0332266636601220023C7
:1019E000C4E93C233F4A404BC4E93E233F4BC4F883
:1019F00000310B23A4F8043142463946304600F04A
:101A00003FFE2060B9F1000F01D0C9F8004000F09E
:101A100061FE374B374F1A68374E01321A603D6806
:101A2000002D4ED13C601B68012B1FD1B0464046B3
:101A30000135FFF7D3FB072D08F11408F7D1DFF8C4
:101A4000E0802E4D4046FFF7C9FB2846FFF7C6FB56
:101A50002B48FFF7C3FB2B48FFF7C0FB2A48FFF7D3
:101A6000BDFB2A4BC3F80080294B1D60294A2A4937
:101A70001368086801331360E26A636401239340CA
:101A8000034314200B6000FB02605146FFF7B4FBD8
:101A900000F040FE214B1B6873B13B68DA6AE36AD1
:101AA0009A4209D24FF0E0234FF08052C3F8042D40
:101AB000BFF34F8FBFF36F8F01203EE784F83450A0
:101AC00062E7164B1A68E36A002ACFD13A68D26AF5
:101AD0009A4298BF3C60C9E7504600F091FD2AE762
:101AE000040B00200E33CDAB34126DE6ECDE0500A6
:101AF000940600209407002008070020E00600203C
:101B0000C4060020B006002098060020DC06002055
:101B1000D8060020780600208C06002088060020C9
:101B2000F406002013B51C4A1C4B019300241C49E9
:101B30001C4800942346C2F3CF02FFF7EFFE0128B2
:101B40001DD100F035FB012819D14FF0500383F36C
:101B50001188BFF36F8FBFF34F8F134B134A1B686E
:101B600058331360124B4FF0FF321A60114B18605C
:101B7000114B1C6002B0BDE8104000F03BBE0130CC
:101B800008D14FF0500383F31188BFF36F8FBFF379
:101B90004F8FFEE702B010BD000400007006002069
:101BA000158C0008851800089407002034020020D6
:101BB000740600208806002090060020024A136860
:101BC00001331360704700BF6C060020014B18689A
:101BD000704700BF90060020444B1B682DE9F74F6B
:101BE000002B7AD1424B1C6801341C60BCB9414BBC
:101BF0001A68126842B14FF0500383F31188BFF3A3
:101C00006F8FBFF34F8FFEE73B4A1968106818606B
:101C100011603A4A136801331360FFF76DFE384DC7
:101C2000384E2B68384F9C424FF0000B17D23A6861
:101C3000D26A14214A43B258022A344A126828BF91
:101C40004FF0010B0AB900F080FC314A1268002AFB
:101C500018BF4FF0010B584603B0BDE8F08FDFF816
:101C600094A0DFF8B090DAF8002012681AB94FF0AB
:101C7000FF322A60DBE7DAF80020D268D2F80C8065
:101C8000D8F804108C4201D22960D0E708F104038F
:101C900018460193FFF7D2FAD8F8281019B108F1C5
:101CA0001800FFF7CBFAD8F82C00D9F80030012241
:101CB00002FA00F119434FF0140CC9F800100CFBA4
:101CC00000600199FFF798FA3868D8F82C10C26ABA
:101CD000914228BF4FF0010BC5E70C4A136801334E
:101CE00013604FF0000B00F030FCB4E76C060020EE
:101CF00090060020DC060020D80600207C0600208C
:101D000074060020080700209407002084060020A5
:101D1000800600208C0600202DE9F843314C236812
:101D200043B94FF0500383F31188BFF36F8FBFF3B4
:101D30004F8FFEE700F0CEFC2368013B2360246850
:101D40002CB1002400F0E6FC2046BDE8F883264BC9
:101D50001B68002BF5D0254D254EDFF8A4801FE031
:101D6000EB68DC6804F1040904F11800FFF766FA77
:101D70004846FFF763FAE26A3168012707FA02F37F
:101D800014200B4300FB028049463360FFF734FA0E
:101D9000184BE26A1B68DB6A9A4201D3164B1F603C
:101DA0002B68002BDCD10CB1FFF7A6FD134D2C687E
:101DB00044B1114E0127FFF70FFF00B13760013C1E
:101DC000F9D12C600C4B1B68002BBAD04FF0E023EC
:101DD0004FF08052C3F8042DBFF34F8FBFF36F8FC6
:101DE0000124AFE76C06002094060020C406002002
:101DF0008C06002094070020800600208406002026
:101E00000807002008B550B94FF0E0234FF080528A
:101E1000C3F8042DBFF34F8FBFF36F8F08BD0A4B7C
:101E2000196841B14FF0500383F31188BFF36F8FEE
:101E3000BFF34F8FFEE7FFF7C1FEFFF7DFFCFFF7B1
:101E40006BFF0028E0D0E9E76C060020194B1A6808
:101E5000194B10B512B101221A6010BD1A60174B50
:101E60001A68B2FA82F2D2B2C2F11F0214231449E4
:101E70005343C818CC5844B94FF0500383F311882A
:101E8000BFF36F8FBFF34F8FFEE74468083364687A
:101E900044600B449C4204BF63684360142303FB0B
:101EA00002114B68DA68074B1A601B68064A583300
:101EB0001360D2E76C060020800600208C0600200C
:101EC00008070020940700203402002010B50C46BB
:101ED00040B94FF0500383F31188BFF36F8FBFF306
:101EE0004F8FFEE7054B19681831FFF790F9204630
:101EF0000121BDE81040FFF781BC00BF940700201E
:101F000038B50D46144640B94FF0500383F311889D
:101F1000BFF36F8FBFF34F8FFEE7074B1968183180
:101F2000FFF76AF9002C21460CBF28464FF0FF301E
:101F3000BDE83840FFF762BC9407002038B5C3689D
:101F4000DC6844B94FF0500383F31188BFF36F8FFF
:101F5000BFF34F8FFEE704F118052846FFF76EF92F
:101F6000114B1B68E3B9251D2846FFF767F90F4998
:101F7000E26A08680123934003430B600C4B142072
:101F8000294600FB0230FFF737F90A4BE26A1B686B
:101F9000DB6A9A4283BF084B01201860002038BDDD
:101FA00006482946EFE700BF6C0600208C0600209B
:101FB000080700209407002080060020C4060020A7
:101FC000034B1B680360034B1B684360704700BFF3
:101FD0007C0600209006002070B50C46054640B9EE
:101FE0004FF0500383F31188BFF36F8FBFF34F8F10
:101FF000FEE741B94FF0500383F31188BFF36F8FB1
:10200000BFF34F8FFEE700F065FB0F4B19682368A5
:102010005A1C10D00D482E6800686A68864201D0AC
:102020008A420FD9881A83420AD95B1A1344236063
:102030002846FFF7C5FF002400F06CFB204670BD6A
:10204000002323600124F7E7900600207C0600208F
:10205000014B01221A60704780060020054B1B6867
:1020600033B1054B1868B0FA80F040094000704762
:1020700001207047880600206C060020F8B5044651
:1020800008B90020F8BD224B1B68834208D04FF0EE
:10209000500383F31188BFF36F8FBFF34F8FFEE7B9
:1020A0001B6D43B94FF0500383F31188BFF36F8F5B
:1020B000BFF34F8FFEE7C16AC26C013B91420365DB
:1020C000DFD0002BDDD1061D3046FFF7B7F8114FEA
:1020D000114A50B9E16A14234B43FB582BB91368DA
:1020E00001258D4023EA05031360E36CE362C3F12D
:1020F0000701A1611168012404FA03F514200D43BE
:1021000000FB037031461560FFF776F82046B9E70B
:1021100094070020080700208C060020914208B593
:10212000416000610AD8D21A83699A420DD2084BE5
:10213000011D1868FFF76BF8002008BD9A4201D214
:10214000994202D2034B011DF3E70120F5E700BFDE
:10215000A4070020A8070020F8B50F4C00F0BAFA39
:102160002568ADB90D4F0E4E3846FFF737F83046AB
:10217000FFF734F80B4B1F600B4B2A460C210A204B
:102180001E60FFF734F9206010B10849FFF700FB2B
:10219000BDE8F84000F0BEBAA0070020C00700204C
:1021A000AC070020A8070020A40700201A8C000814
:1021B00007B5FFF7D1FF0F4B1B6843B94FF0500332
:1021C00083F31188BFF36F8FBFF34F8FFEE70A4A87
:1021D0000A4B0193D2080223520000930849094890
:1021E00092B20023FFF79AFB0028E7D003B05DF816
:1021F00004FB00BFA0070020000400009C07002093
:102200001F8C0008052300087FB5164604461A46B1
:1022100040B94FF0500383F31188BFF36F8FBFF3C2
:102220004F8FFEE70D4D286880B10529CDE90116D5
:1022300003940DDCFFF712FF0023022808BF089A61
:10224000286818BF1A4601A9FFF7F5F804B070BD59
:10225000002301A9FFF7A1F9F8E700BFA0070020BC
:102260002DE9F347DFF898800646FFF7AFFCD8F872
:1022700000308342054609D91F4F3B681A686AB986
:102280001E4A116839601360012300E000232846CC
:102290003360C8F8005002B0BDE8F087DB68DC6846
:1022A000D3F8009004F1040A5046FEF7C7FF236AF2
:1022B0002046984794F828305B07DED5A3694B4445
:1022C000994506D23868636024615146FEF79FFF46
:1022D000D3E7002300934A4619462046FFF794FFB0
:1022E0000028CAD14FF0500383F31188BFF36F8FDA
:1022F000BFF34F8FFEE700BFA8070020A407002010
:10230000980700202DE9F043694D6A4E87B02B688D
:10231000D3F80080B8F1000F35D0DB68D3F8008027
:102320000024FFF74BFC03A8FFF79AFF039B8146AD
:10233000002B6AD1002C4DD1404551D3FFF7ECFC66
:102340002B68DB68DF68381DFEF778FF97F82830C8
:1023500058071AD5B96943464A4641443846FFF7FB
:10236000DDFEB0B100942346424621463846FFF7D1
:102370004BFF70B94FF0500383F31188BFF36F8F99
:10238000BFF34F8FFEE70124CBE723F0010387F86B
:1023900028303B6A384698473068002203A9FFF787
:1023A00059F90028B3D0039B002BF5DB059C63692A
:1023B00013B1201DFEF742FF02A8FFF751FF039B58
:1023C0000246092BE8D8DFE803F02323234C536BA4
:1023D00023234C53384B1B681C68B4FA84F46409FB
:1023E00030682246A8EB0901FFF7E4F9FFF794FCF7
:1023F0000028D1D14FF0E0234FF08052C3F8042DD4
:10240000BFF34F8FBFF36F8FC6E7FFF785FCC3E7BE
:1024100094F82830A16943F0010384F82830049B24
:1024200020461944FFF77AFE0028B5D0236A2046DB
:10243000984794F828305907AED5A269049900232B
:102440000A44009319462046FFF7DEFE0028A3D178
:102450004FF0500383F31188BFF36F8FBFF34F8F9B
:10246000FEE794F8283023F0010384F8283093E73E
:1024700094F8283043F0010384F828300499A161CE
:1024800041B94FF0500383F31188BFF36F8FBFF34F
:102490004F8FFEE7034601442046FFF73FFE7BE7F0
:1024A00094F828309A07DED4204600F0A9F873E7A4
:1024B000A8070020A0070020A4070020064B41F633
:1024C00058321B68B3FBF2F3002243439A4200D117
:1024D000704700BF0132F9E73C00002038B50446E0
:1024E00072B60121522003F07BF900250121522010
:1024F00003F0E0F94FF49670FFF7E0FF002152205F
:1025000003F0D8F901354FF49670FFF7D7FFAC42CE
:10251000ECD14FF4FA60FFF7D1FFE6E7FEF752BCCB
:1025200008B50420FFF7DAFF08B5FFF7F9FF08B593
:102530000520FFF7D3FF08B5FFF7F9FF08B5062020
:10254000FFF7CCFF08B5FFF7F9FF704708B5FFF7B5
:1025500085FD012803D0BDE8084000F023B908BD7F
:10256000F8B50C4617490B6807464BB9164A174B86
:102570009B1A174A22F003029B1A164A0B6013603B
:10258000FFF76CFD01281FBF114B104D23F0030313
:10259000ED1A08BF6D46FFF711FB0F4B1E6832198D
:1025A000AA4207D90C233B60FFF7B6FB4FF0FF367A
:1025B0003046F8BD1A60074A13681B1B1360FFF70B
:1025C000ABFBF5E7D4070020480C002000000220F8
:1025D00000040000D807002000000020EFF305836E
:1025E0000BB9FFF7EBBA4FF0500383F31188BFF339
:1025F0006F8FBFF34F8FFEE7FFF78EBB03F0AEB9CF
:1026000003F0B4B908480068006880F308884FF008
:10261000000080F3148862B661B6BFF34F8FBFF33A
:102620006F8F00DF00BF000008ED00E0DFF80C0056
:10263000016841F4700101607047000088ED00E01E
:1026400082B0002301930D4B1B68013308D04FF07B
:10265000500383F31188BFF36F8FBFF34F8FFEE7F3
:102660004FF0500383F31188BFF36F8FBFF34F8F89
:10267000019B002BFCD002B0704700BF040000207B
:102680004FF0807340F8043C074B40F80C3C21F0BD
:1026900001016FF0020340F8081C40F8202C40F8BC
:1026A000243C4438704700BF412600080000000069
:1026B000074B19680868B0E8F04F80F30988BFF34A
:1026C0006F8F4FF0000080F311887047AFF30080E8
:1026D000940700204FF0500383F31188BFF36F8FEE
:1026E000BFF34F8F0A4A13680133012B13600ED1D9
:1026F0004FF0E023D3F8043DDBB243B14FF0500379
:1027000083F31188BFF36F8FBFF34F8FFEE77047DE
:1027100004000020084A136843B94FF0500383F3C4
:102720001188BFF36F8FBFF34F8FFEE7013B13603C
:102730000BB983F3118870470400002000000000EB
:10274000EFF30980BFF36F8F154B1A681EF0100F5F
:1027500008BF20ED108A20E9F04F10602DE9090034
:102760004FF0500080F31188BFF34F8FBFF36F8F8E
:10277000FFF76CFB4FF0000080F3118809BC19686B
:102780000868B0E8F04F1EF0100F08BFB0EC108AD8
:1027900080F30988BFF36F8F704700BFAFF30080ED
:1027A0009407002008B54FF0500383F31188BFF35E
:1027B0006F8FBFF34F8FFFF70FFA28B14FF0E02371
:1027C0004FF08052C3F8042D002383F3118808BD15
:1027D0004FF0E022002313619361054B4FF47A71AF
:1027E0001B68B3FBF1F3013B53610723136170478F
:1027F0003C0000204FF0E02337B5D3F8001D384AE5
:10280000914208D14FF0500383F31188BFF36F8FCB
:10281000BFF34F8FFEE7D3F8002D324B9A4208D119
:102820004FF0500383F31188BFF36F8FBFF34F8FC7
:10283000FEE72D4B1A78D2B20192FF221A701B7854
:102840002A4ADBB28DF803309DF8033003F05003C1
:102850001370274A072313609DF8031013680906B5
:102860000AD4032B11D04FF0500383F31188BFF328
:102870006F8FBFF34F8FFEE7013B13609DF803306E
:102880005B00DBB28DF80330E6E74FF44073136072
:10289000019B154A4FF0E024DBB21370D4F8203DC1
:1028A00043F46003C4F8203DD4F8203D43F0604376
:1028B000C4F8203DFFF78CFF0E4B00251D60FFF78D
:1028C000B5FED4F8343F43F04043C4F8343FFFF73B
:1028D00099FEFFF7BBFAFFF7B3FE284603B030BD01
:1028E00071C20F4170C20F4100E400E0E007002018
:1028F000DC07002004000020EFF305830F2B0ED926
:10290000114A9B5C114A12789A4208D94FF0500341
:1029100083F31188BFF36F8FBFF34F8FFEE74FF044
:10292000E0230B4AD3F80C3D126803F4E0639342B2
:1029300008D94FF0500383F31188BFF36F8FBFF3B3
:102940004F8FFEE7704700BFF0E300E0E007002094
:10295000DC0700207047000038B50E4B1A784FF4A2
:102960007A73B3FBF2F30C4A05461068B0FBF3F040
:1029700000F0A6F8044658B90F2D09D8024629469A
:102980004FF0FF3000F04AF8044B20461D6038BD80
:102990000120FCE7080000203C0000200C00002083
:1029A00008B50B4B1A6842F400721A601A6842F4B8
:1029B00080621A601A6842F480721A60032000F084
:1029C0001BF80020FFF7C8FFFFF7C4FF002008BD79
:1029D000003C0240034A044B11681B780B4413600F
:1029E000704700BFE407002008000020014B186872
:1029F000704700BFE40700200749CA6822F4E0627C
:102A00000302120403F4E063120C134343F0BF63A8
:102A100043F40033CB60704700ED00E0164B30B557
:102A2000DC68C4F30224C4F10703251D042B28BF6E
:102A30000423062D4FF0FF358CBF033C002405FA1C
:102A400003F321EA0303A54022EA0502A34000287C
:102A500043EA0203ACBF00F16040084A4FEA0313A7
:102A6000B8BF00F00F00DBB2AABF00F561401354FD
:102A700080F8003330BD00BF00ED00E014ED00E051
:102A8000002807DB044A4109012300F01F008340AE
:102A900042F82130704700BF00E100E000280CDB65
:102AA0004309064900F01F0020330122824041F80B
:102AB0002320BFF34F8FBFF36F8F704700E100E01B
:102AC0000138B0F1807F0BD24FF0E023054A586106
:102AD000F02182F823100020072298611A617047C4
:102AE0000120704700ED00E0002808DB430904499D
:102AF00000F01F0001226033824041F8232070471C
:102B000000E100E0704708B5FFF7FCFF08BD704723
:102B100010B5044650B1437903F0FF0213B90271B6
:102B2000FFF7F5FF01236371002010BD0120FCE7D2
:102B300010B5044640B10223037101F035FA0020BC
:102B400020616071207110BD0120FCE710B50123E8
:102B500058B1046801F01001226803FA01F122EA79
:102B6000010222600371002010BD1846FCE770B519
:102B70000446866DFFF73AFF94F83530022B054680
:102B800006D0802363650120002384F8343070BDB3
:102B900023681A6822F016021A605A6922F080022D
:102BA0005A61226C0AB9A26C1AB11A6822F00802A2
:102BB0001A601A6822F001021A602368186810F07F
:102BC000010007D1E26D3F239340B360012384F8F5
:102BD0003530D9E7FFF70AFF401B0528EDD9202340
:102BE0000320636584F83500CEE790F83530022B7A
:102BF00003D080234365012070470268052380F8D5
:102C00003530136823F00103136000207047000083
:102C1000044A5169014208B502D0506101F08AFAB4
:102C200008BD00BF003C01402DE9F341044640B31C
:102C30000368DE0710D423689D075BD42368190757
:102C400000F19D8023685A0700F1BD80A369002B25
:102C500040F0248100202CE08D4B9A6802F00C0299
:102C6000042A07D09A6802F00C02082A0BD15B688C
:102C7000590208D5864B1B689A03DCD56368002B84
:102C8000D9D1012015E06368814DB3F5803F13D1A0
:102C90002B6843F480332B60FFF7A8FE7C4E05467B
:102CA00033689B03C7D4FFF7A1FE401B6428F7D904
:102CB000032002B0BDE8F081B3F5A02F04D12B684A
:102CC00043F480232B60E3E72A6822F480322A60F1
:102CD0002A6822F480222A60002BDDD1FFF786FECD
:102CE00006462B689F03A6D5FFF780FE801B64284D
:102CF000F7D9DDE7664B9A6812F00C0F07D09A6897
:102D000002F00C02082A11D15B685D020ED4604A01
:102D10001368990702D5E368012BB2D113682169C2
:102D200023F0F80343EAC103136087E7E268594BD5
:102D3000B2B101221A60FFF759FE554D06462B68C5
:102D40009B0707D52B68226923F0F80343EAC203E7
:102D50002B6073E7FFF74AFE801B0228EFD9A7E735
:102D60001A60FFF743FE4A4E054633689F077FF51A
:102D700065AFFFF73BFE401B0228F6D998E7626972
:102D8000444B82B10122C3F8802EFFF72FFE404E44
:102D90000546736F9B073FF555AFFFF727FE401BB6
:102DA0000228F6D984E7C3F8802EFFF71FFE384EBD
:102DB0000546736F9F077FF545AFFFF717FE401B72
:102DC0000228F6D974E7324B1A6C12F0805228D1DF
:102DD00001921A6C42F080521A641B6C03F080530B
:102DE0000193019B01272C4D2B68D8051BD5A368A7
:102DF000274D012B27D12B6F43F001032B67FFF7E2
:102E0000F5FD234E054641F28838336F9A0739D5D0
:102E1000002F3FF41BAF1E4A136C23F08053136442
:102E200014E70027DFE72B6843F480732B60FFF77C
:102E3000DDFD06462B68D905D9D4FFF7D7FD801BE9
:102E40000228F7D934E7052B04D12B6F43F0040394
:102E50002B67D0E72A6F22F001022A672A6F22F03F
:102E600004022A67002BCAD1FFF7C0FD41F288385F
:102E700006462B6F9B07CBD5FFF7B8FD801B40455F
:102E8000F7D915E7FFF7B2FD401B4045BDD90FE765
:102E9000003802400000474200700040374DAA68E9
:102EA00002F00C02082A3ED0022B354B4FF00002F4
:102EB0001A662BD1FFF79AFD06462B6899011FD49D
:102EC000D4E907321343626A43EA8213E26A43EAAF
:102ED0000263A26A5208013A43EA02436B60284B3C
:102EE000264D01221A66FFF781FD04462B689A01E0
:102EF0003FF5B0AEFFF77AFD001B0228F6D9D7E602
:102F0000FFF774FD801B0228D7D9D1E6FFF76EFDCD
:102F100004462B689B017FF59DAEFFF767FD001B04
:102F20000228F6D9C4E6012B3FF4ABAE6B68E26928
:102F300003F4800191427FF4A4AE216A03F03F02C2
:102F40008A427FF49EAE616A47F6C0721A40B2EBC5
:102F5000811F7FF496AEA26A520803F44031013A11
:102F6000B1EB024F7FF48DAEE26A03F07063B3EB16
:102F7000026F14BF012000209BE600BF0038024012
:102F800000004742134908B58B6803F00C03042B7B
:102F90001CD0082B1CD14A684B68496813F4800385
:102FA00014BF0D480D48C1F3881118BF002302F06B
:102FB0003F02A1FB0001FDF7C9FD064B5B68C3F3AF
:102FC000014301335B00B0FBF3F008BD0248FCE7AE
:102FD0000248FAE70038024000127A000024F400A8
:102FE0002DE9F0410D46044610B90120BDE8F081FD
:102FF000434B1A6802F007028A4228D321688F07E0
:103000002DD4C80740D43E4B1A6802F00702AA42EA
:1030100065D8226851076BD4130707D5394A21694F
:10302000936823F4604343EAC1039360FFF7AAFF68
:10303000344B354A9B68C3F30313D35CD840334BFE
:103040001860334B1868FFF787FC0020CEE7CAB240
:103050001A701B6803F007038B42C6D1CEE7294BD9
:1030600011F0040F1EBF9A6842F4E0529A600E07F6
:1030700042BF9A6842F460429A609A68A06822F05F
:10308000F00202439A60BCE762681E4B012A1CD121
:103090001B6813F4003FA8D01A4EB36823F0030353
:1030A0001343B360FFF7A2FC41F288380746B368C8
:1030B000626803F00C03B3EB820FA4D0FFF796FC19
:1030C000C01B4045F3D9032090E7911E01291B68DE
:1030D00002D813F0007FDEE713F0020FDBE7EAB25D
:1030E0001A701B6803F00703AB427FF47EAF90E7D2
:1030F0000449E0688B6823F4E05303438B608BE75B
:10310000003C0240003802408C8E00083C00002049
:103110000C000020044B054A9B68C3F38223D35C58
:10312000034A1068D840704700380240848E000877
:103130003C000020044B054A9B68C3F34233D35C38
:10314000034A1068D840704700380240848E000857
:103150003C00002070477047036870B5DD681E6949
:10316000B10704460DD5AA070BD56FF002021A610C
:10317000012202779B699B0769D000F064FE00235F
:103180002377710710D56A070ED523686FF0040204
:103190001A61022222779B6913F4407F20465CD09B
:1031A00000F051FE0023237733070FD528070DD5F4
:1031B00023686FF008021A6104222277DB699907FD
:1031C000204650D000F03FFE00232377F20610D5B2
:1031D000EB060ED523686FF010021A6108222277E1
:1031E000DB6913F4407F204643D000F02CFE00231F
:1031F0002377F00708D5E90706D523686FF00102A9
:103200001A61204600F0FCFD320608D52B0606D5D3
:1032100023686FF080021A61204600F0B6F870064D
:1032200008D5690606D523686FF040021A6120466A
:10323000FFF791FFB20622D5AB0620D523686FF0C9
:10324000200220461A61BDE8704000F09DB800F0F1
:10325000F8FD2046FFF77EFF91E700F0F2FD2046E3
:10326000FFF778FF9EE700F0ECFD2046FFF772FFC6
:10327000AAE700F0E6FD2046FFF76CFFB7E770BD58
:10328000294A0368904212D0B0F1804F0FD0A2F5C6
:103290007C4290420BD002F58062904207D002F54A
:1032A0008062904203D002F57842904208D14A6889
:1032B00023F070031343CA6823F44073134316E0EA
:1032C0001A4A9042F7D002F580629042F3D002F59C
:1032D00080629042EFD0A2F598329042EBD002F596
:1032E00080629042E7D002F580629042E3D04A6962
:1032F00023F08003134303608B68C3620B6883620F
:10330000094B984203D003F58063984201D10B69C1
:103310000363012343610369DB0742BF036923F0B1
:1033200001030361704700BF0000014000400140FD
:1033300010B5044630B390F83D3003F0FF021BB9DE
:1033400080F83C2001F01EFB0223206884F83D3009
:10335000211DFFF795FF012384F84630002084F8F3
:103360003E3084F83F3084F8403084F8413084F8AF
:10337000423084F8433084F8443084F8453084F88F
:103380003D3010BD0120FCE770477047026802F134
:103390000C0353E8003F23F490730C3242E80031F1
:1033A00002680029F2D102F1140353E8003F23F030
:1033B000010302F1140C4CE800310029F3D1036B36
:1033C000012B0BD102F10C0353E8003F23F0100353
:1033D00002F10C0C4CE800310029F3D1202380F8D5
:1033E00042300023036370470268C16838B513692F
:1033F00023F440530B431361054683680069D16889
:10340000034368690343E86921F4164121F00C0184
:1034100003430B43D3605369A96923F440730B43FF
:1034200053611F4B9A4203D003F580639A4224D123
:10343000FFF780FEEA691921B2F5004FD5E9004394
:10344000A0FB01011CD1DA184FF0000545EB050384
:10345000FDF77CFB6422B0FBF2F102FB1103DB0001
:103460003233B3FBF2F303F007025B0002EB01120D
:1034700003F4F8731344A36038BDFFF74BFED9E79C
:103480009A009B0FFDF762FB6422B0FBF2F102FB96
:1034900011031B013233B3FBF2F303EB0113EAE731
:1034A00000100140F7B505460C4617461E462A682F
:1034B000136834EA030301D1002021E0701CF7D027
:1034C000FFF794FAC01B86421CD3DEB12B68DA6882
:1034D0005107ECD5802CEAD0402CE8D01A681207AE
:1034E000E5D5002401941A6801925B68019328468F
:1034F000019BFFF74BFF08236B6485F840400120D8
:1035000003B0F0BD0320FBE7704710B5044648B395
:1035100090F8413003F0FF021BB980F84020FFF71C
:10352000F3FF2268242384F84130D36823F4005346
:10353000D3602046FFF758FF23681A6922F49042AF
:103540001A615A6922F02A025A61DA6842F400527A
:10355000DA6000202023606484F8413084F842302F
:10356000606310BD0120FCE710B5044668B390F815
:10357000413003F0FF021BB980F84020FFF7C4FF81
:103580002268242384F84130D36823F40053D360A5
:103590002046FFF729FF23681A6922F490421A6136
:1035A0005A6922F022025A615A6942F008025A61AD
:1035B000DA6842F40052DA6000202023606484F864
:1035C000413084F84230606310BD0120FCE72DE9F2
:1035D000F843984690F84130202B04460E46174693
:1035E0003FD100293FD0002A3DD02123002545644A
:1035F00080F84130FFF7FAF9A368A784B3F5805F3C
:103600008146E78403D123690BB935461E46E38C16
:103610009BB253B943464A4640212046FFF742FF3A
:10362000202350B984F841300AE043464A468021BD
:103630002046FFF737FF28B1202384F841300320CC
:10364000BDE8F88322684EB935F8023BC3F308039E
:103650005360E18C013989B2E184D8E716F8013B67
:10366000F6E70220ECE70120EAE790F84130202B52
:1036700010D189B182B1C2840162828401680023C1
:103680002122436480F84120CA6842F08002CA6067
:1036900018467047022070470120704708B5806BBC
:1036A0000023C385C38401F003FC08BD704790F874
:1036B0004230222B07B542D181680268836AB1F596
:1036C000805F3FD1016900293FD15268C2F30802EF
:1036D00023F8022B8362C38D013B9BB2C385002B71
:1036E0002DD10268D16821F02001D160D16821F488
:1036F0008071D160516921F001015161202280F86F
:1037000042204363026B012A026828D1036302F15D
:103710000C0353E8003F23F0100302F10C0C4CE8BB
:1037200000310029F3D11368DB0605D50191136838
:10373000019353680193019B818DFFF7B7FF03B09D
:103740005DF804FB39B9016929B95268D2B21A701F
:10375000836A0133BEE7526802F07F02F7E701F0A7
:10376000A1FBECE703681A6873B51607D9685D69B1
:10377000044608D1960668D58D0666D502B0BDE828
:103780007040FFF794BF05F0010001F49075054308
:103790005BD0D60705D5CD0542BF636C43F001036E
:1037A0006364530704D518B1636C43F00203636488
:1037B000960704D518B1636C43F0040363641507DE
:1037C00007D501F0200303431EBF636C43F00803D9
:1037D0006364636C002B32D0920604D58B0602D54D
:1037E0002046FFF764FF26687369626C03F04003AC
:1037F00002F0080253EA0205204622D0FFF7C6FD78
:1038000073695E0618D5226802F1140353E8003F7D
:1038100023F04003143242E800310029F3D1E06B79
:1038200050B1744B0365FFF7E0F940B1E06B036DF5
:1038300002B0BDE870401847204601F039FB02B0E5
:1038400070BD01F035FB6564F9E7206B012840F09D
:103850009580D50640F19280C80640F18F80002205
:1038600001921A6801925A680192019A5A695206A5
:103870004ED5E16B0A68526892B2002ADFD0A08D63
:103880009042DCD9E285CA69B2F5807F36D003F177
:103890000C0252E8002F22F4807203F10C0040E881
:1038A00000210029F3D103F1140252E8002F22F085
:1038B000010203F1140040E800210029F3D103F1D3
:1038C000140252E8002F22F0400203F1140040E8F5
:1038D00000210029F3D1202284F84220216303F142
:1038E0000C0252E8002F22F0100203F10C0040E815
:1038F00000210029F3D1E06BFFF739F9022363635C
:10390000E38DA18DC91A89B22046FFF7CFFE96E755
:10391000E28DE08DA18D80B292B200288FD0891AFD
:1039200089B200298BD003F10C0252E8002F22F457
:10393000907203F10C0545E800200028F3D103F153
:10394000140252E8002F22F0010203F1140545E8A9
:1039500000200028F3D1202284F84220206303F1C4
:103960000C0252E8002F22F0100203F10C0545E88A
:1039700000200028F3D102236363C5E7160628D58B
:103980000D0626D594F84120212A7FF458AFA1686E
:10399000226AB1F5805F17D12169A9B932F8021BFB
:1039A000C1F3080159602262E28C013A92B2E284CA
:1039B000002A7FF444AFDA6822F08002DA60DA6825
:1039C00042F04002DA603AE7511C216212785A60F4
:1039D000EAE750067FF533AF4A067FF530AFDA6885
:1039E00022F04002DA60202384F84130204601F0C2
:1039F0005CFA24E79D36000890F84030012B11D086
:103A00000268242380F84130D36823F00C0343F08C
:103A10000803D360202380F84130002380F8403031
:103A2000184670470220704790F84030012B11D0A3
:103A30000268242380F84130D36823F00C0343F05C
:103A40000403D360202380F84130002380F8403005
:103A5000184670470220704790F8412090F84200C5
:103A600010437047C2850023828502694364222384
:103A700080F84230816203681AB1DA6842F48072D9
:103A8000DA605A6942F001025A61DA6842F02002B3
:103A9000DA600020704770B490F84260202E06D1A2
:103AA00041B13AB10024046370BCFFF7DBBF0220D0
:103AB00070BC70470120FBE7836810B504462BB14A
:103AC0000322014698470023C4E9023310BD8368EE
:103AD00010B5044613B1032201469847204610BD95
:103AE000294A9042034633D0B0F1804F32D0A2F53C
:103AF0007C42904230D002F5806290422ED002F596
:103B0000806290422CD002F5806290422AD002F569
:103B10008062904228D002F57042904226D04FF643
:103B2000FF701A4A934223D0194A934222D0194A6D
:103B3000934221D0184A934220D0184A93421FD072
:103B4000174A93421ED04FF6FF7398421BD1FEE7EF
:103B50000020E6E70120E7E70220E8E70320E9E7A5
:103B60000420EAE70520EBE70620ECE70720704792
:103B700008207047092070470A2070470B207047C3
:103B80000C2070470D2070470000014000400140AC
:103B9000004401400048014000180040001C004063
:103BA00000200040014670B5044651F8100FFFF7A1
:103BB00097FF0546084600F091FD094A002342F8A8
:103BC000253004F16006E36004F1B005B54204D08D
:103BD000103D2846FFF77BFFF8E7204670BD00BF89
:103BE000E8070020F8B504460846FFF779FF236987
:103BF00003B1FEE71B4DA36404F10C0245F820203D
:103C000004F110060E22C4E90C33C4E90E33C4E9F2
:103C10001033C4E91623216184F82C3084F84C3029
:103C200084F84D30E460304600F060FC04F160053B
:103C300004F1B00728461035FFF73EFFBD42F9D129
:103C40000023C4E900334FF6FF72C4E90632C4E929
:103C50000833A36063618023A3623046BDE8F84067
:103C6000FFF766BBE807002010B5074C206810B1CD
:103C70000430FFF771FA606A20B1BDE810400430EB
:103C8000FFF76ABA10BD00BFE8070020034B1868B1
:103C900010B10430FFF760BA704700BFE80700209A
:103CA000034B586810B10430FFF756BA704700BF95
:103CB000E8070020034B986810B10430FFF74CBAB6
:103CC000704700BFE8070020034BD86810B10430EC
:103CD000FFF742BA704700BFE8070020034B18699E
:103CE00010B10430FFF738BA704700BFE807002072
:103CF000034B586910B10430FFF72EBA704700BF6C
:103D0000E8070020034B986910B10430FFF724BA8C
:103D1000704700BFE807002010B5074CE06910B1FC
:103D20000430FFF719FA206B20B1BDE810400430D1
:103D3000FFF712BA10BD00BFE8070020034BD86997
:103D400010B10430FFF708BA704700BFE807002041
:103D5000034B186A10B10430FFF7FEB9704700BF7B
:103D6000E8070020034B986A10B10430FFF7F4B95C
:103D7000704700BFE8070020034BD86A10B1043039
:103D8000FFF7EAB9704700BFE8070020034B586B04
:103D900010B10430FFF7E0B9704700BFE80700201A
:103DA0000022C0E90022C0E902227047F8B50446AB
:103DB0000E4600F1600500F1B00728461035FFF708
:103DC000EFFFBD42F9D10023204623613146FFF7C2
:103DD00009FF2046F8BD826810B50AB904F0A8FEB4
:103DE000BDE81040C368184708B500B9FEE700F009
:103DF0007BFB0068836E13B16030FFF7ECFF08BDFA
:103E0000FFF7F2BF10B500B9FEE7037F013B072BB8
:103E100010D8DFE803F004140F100F0F0F12012465
:103E200000F062FB0068063400EB041083680BB1FD
:103E3000FFF7D1FF10BD0324F2E70424F0E70224CA
:103E4000EEE7FFF7DFBFFFF7DDBF01F087BD01F051
:103E50008DBD00008AB0002308287CD8DFE800F080
:103E60000513202D3A4754616E0001933B4B3C48AB
:103E70001A6B42F001021A631B6B03F001030193FA
:103E8000019B0AB070470293344B36481A6B42F0DC
:103E900002021A631B6B03F002030293029BF0E71A
:103EA00003932E4B30481A6B42F004021A631B6BCB
:103EB00003F004030393039BE3E70493274B2B488E
:103EC0001A6B42F008021A631B6B03F00803049399
:103ED000049BD6E70593214B25481A6B42F010024C
:103EE0001A631B6B03F010030593059BC9E7069348
:103EF0001A4B20481A6B42F020021A631B6B03F026
:103F000020030693069BBCE70793144B1A481A6BD1
:103F100042F040021A631B6B03F040030793079BB8
:103F2000AFE708930D4B15481A6B42F080021A63F5
:103F30001B6B03F080030893089BA2E70993074BD0
:103F40000F481A6B42F480721A631B6B03F4807380
:103F50000993099B95E7002093E700BF00380240D2
:103F6000000002400004024000080240000C024031
:103F7000001002400014024000180240001C0240E1
:103F80000020024008B5074900F076FAC0F3C430BB
:103F9000012802D0022802D0FEE7002008BD102030
:103FA000FCE700BF889300080268094B9A420DD1D4
:103FB00003F5E2331A6A42F000521A621A6A22F0DA
:103FC00000521A621A6C22F000521A64704700BF45
:103FD0000074004010B50B4986B0044600F02AFA80
:103FE000019060B12046FFF7CDFF30F0100301468D
:103FF00005D101A8FEF7AAFD01A8FEF799FD06B0BC
:1040000010BD00BF88930008F8B51449144E074648
:1040100000F010FAFFF764FD56F82030044673B93B
:10402000B020FFF712FF0D490546384600F002FAAE
:1040300001462846FFF7BAFE56F824301D6056F8B0
:1040400024301C6844B12046FFF7ACFD2046B02167
:10405000BDE8F840FFF7FBBEF8BD00BF4C9000087C
:10406000E8070020FEF7C2BC08B5FEF7B3FCFEF778
:104070004AFDFEF76BFA08BD7047000084B0114B93
:1040800000220192196C41F080511964196C01F001
:104090008051019101990292596C41F48041596417
:1040A000596C01F480410291029903921A6B42F417
:1040B00080521A631B6B03F480530393039B04B079
:1040C000704700BF003802400C4BD3F8FC20D201EF
:1040D0005EBFD3F8FC2042F08072C3F8FC20084B8E
:1040E00000225A601A6842F001021A6000BF00BF45
:1040F00000BF5868B0FA80F04009704700ED00E05A
:10410000001000E008B5FFF7B9FFFFF7DDFFFEF78D
:1041100047FCFFF7B1FF00F06FFFBDE80840014822
:10412000FEF7F6BC340000200023C0E90033C0E9EC
:10413000023370470023012803F101020AD114223F
:10414000DBB25343054A181D1044816829B11A4453
:104150001369184740081346EDE770472008002010
:104160000120FEF755BD0220FEF752BD0420FEF7E8
:104170004FBD0820FEF74CBD1020FEF749BD38B5F5
:1041800005242025A8B2FEF743FD013C4FEA450572
:10419000F8D138BD38B506244FF48065A8B2FEF7D3
:1041A00037FD013C4FEA4505F8D138BD344A104689
:1041B00008B5062300F8043BFFF7B6FF072302F11A
:1041C00018001375FFF7B0FF082302F12C0082F8E6
:1041D0002830FFF7A9FF092302F1400082F83C30A4
:1041E000FFF7A2FF0A2302F1540082F85030172192
:1041F000FFF79AFF02F1680082F86410FFF794FF5E
:1042000002F17C0082F87810FFF78EFF02F1900037
:1042100082F88C10FFF788FF02F1A40082F8A0104A
:10422000FFF782FF02F1B80082F8B4102821FFF7EF
:104230007BFF02F1CC0082F8C810FFF775FF02F196
:10424000E00082F8DC10FFF76FFF02F1F40082F863
:10425000F010FFF769FF02F5847082F80411FFF790
:1042600063FF02F58E7082F81811FFF75DFFBDE85D
:10427000084002F5987082F82C11FFF755BF00BF77
:104280002008002038B5054CA4F5A075143C201D6D
:10429000FFF71DFCAC42F9D138BD00BF600900201A
:1042A00030B591FAA1F391FAA1F1B3FA83F3C4689E
:1042B0005B000325B1FA81F105FA03F3490024EA12
:1042C00003038A401A43C26030BD431C04D00C3142
:1042D00051F80C3C5A1C01D100207047834201F177
:1042E0000C01F5D101207047F8B5471C06460D4674
:1042F00000D1FEE700F00F02414BC0F3031053F86A
:104300002240FFF7A7FD94FAA4F3B3FA83F387687A
:1043100003225B0002FA03F394FAA4F2B2FA82F2E7
:1043200027EA03075200032393403B4305F00701AC
:104330008360032903D8DFE801F05F612C03FEE707
:10434000032394FAA4F2B2FA82F206685200032719
:1043500007FA02F226EA020694FAA4F2B2FA82F20C
:1043600052009340013933430129036005D8436863
:104370002A074CBF2343A3434360C5F30112012A1C
:1043800002D0022A18BF00222146BDE8F840FFF7FC
:1043900087BFC5F306227F2A01D10223D1E7360762
:1043A00016D5230A93FAA3F6B6FA86F6476A93FA65
:1043B000A3F3B6004FF00F0CB3FA83F30CFA06F632
:1043C0009B0027EA060602FA03F333434362E4E75D
:1043D00094FAA4F3B3FA83F3066A9B000F2707FA53
:1043E00003F326EA030694FAA4F3B3FA83F39B00DB
:1043F0009A4032430262D0E70023A2E70123A0E7FC
:10440000448E0008431C06D17047834202D189685C
:10441000FFF76ABF0C310B685A1CF6D1FEE70B6838
:104420005A1C01D100207047834201D1486870476F
:104430000C31F4E7431C01D0FFF7F1BF00207047B7
:104440004B6813B94FF0FF307047834201D10868C1
:1044500070470C31F4E708B1FFF7F2BF4FF0FF30BF
:10446000704703460868421C00D17047984201D14A
:10447000886870470C31F5E7431C01D0FFF7F1BFA6
:10448000704703468B42084604D01BB100290CBF7D
:1044900018460020704700001049D1F8883043F4D6
:1044A0007003C1F888300E4B1A6842F001021A609E
:1044B00000229A601A6822F0847222F480321A6014
:1044C000084A5A601A6822F480221A604FF43F02A8
:1044D000DA604FF000638B60704700BF00ED00E0D2
:1044E00000380240103000240438704703686D4AD9
:1044F00093428EB02AD1002200926B4A516C41F057
:1045000001015164526C02F001020092009A674A64
:1045100093422AD100220592634A116C41F01001A6
:104520001164126C02F010020592059A604A9342DF
:104530002AD100230A935C4B5A6C42F480225A64BD
:104540005B6C03F480230A930A9BA9E0B3F1804FCC
:104550002AD100220192544A116C41F001011164E8
:10456000126C02F001020192019A524A93422AD13E
:10457000002206924C4A116C41F020011164126C29
:1045800002F020020692069A4B4A93422AD1002357
:104590000B93454B1A6C42F040021A641B6C03F0FB
:1045A00040030B930B9B7BE0444A93422AD10022A9
:1045B00002923D4A116C41F002011164126C02F04A
:1045C00002020292029A3E4A93422AD100220792A4
:1045D000354A516C41F002015164526C02F0020202
:1045E0000792079A374A93422AD100230C932E4B05
:1045F0001A6C42F080021A641B6C03F080030C9367
:104600000C9B4DE0304A93422AD100220392264A65
:10461000116C41F004011164126C02F00402039267
:10462000039A2A4A93422BD1002208921E4A516CC7
:1046300041F480315164526C02F480320892089A3D
:10464000234A93422CD100230D93174B1A6C42F44A
:1046500080721A641B6C03F480730D930D9B1FE032
:104660001C4A93427FF453AF002204920E4A116C0D
:1046700041F008011164126C02F008020492049ADD
:10468000154A93427FF452AF00230993064B5A6CAC
:1046900042F400325A645B6C03F400330993099BC3
:1046A0000EB070470000014000380240001000408A
:1046B0000048014000140040001800400004004081
:1046C00000040140001C0040000800400040014080
:1046D00000200040000C00400044014003683B4AB9
:1046E000934215D13A494A6C22F001024A64394A90
:1046F000934215D136490A6C22F010020A64364AF8
:10470000934215D102F57042536C23F480235BE091
:10471000B3F1804F16D12E490A6C22F001020A64CF
:104720002E4A934216D12A490A6C22F020020A64CA
:104730002B4A934216D102F50832136C23F0400342
:1047400013647047274A934215D121490A6C22F01D
:1047500002020A64244A934215D11D494A6C22F090
:1047600002024A64214A934215D102F50732136CC2
:1047700023F08003E4E71E4A934215D114490A6CE2
:1047800022F004020A641B4A934215D110494A6C74
:1047900022F480324A64184A9342D2D102F506329A
:1047A000136C23F48073CBE7144A93429FD10849DA
:1047B0000A6C22F008020A64114A93429FD102F562
:1047C0007442536C23F4003353647047000001407B
:1047D0000038024000100040004801400014004032
:1047E000001800400004004000040140001C00408C
:1047F000000800400040014000200040000C004044
:1048000000440140431C3AD0294B98423AD018D872
:10481000A3F54063984237D00BD8A3F500639842C4
:1048200034D003F58063984232D0B0F1804F31D05C
:10483000FEE7204B98422FD003F5806398422DD09D
:10484000F6E71D4B98422DD00CD8A3F5644398424F
:1048500026D003F56043984226D0A3F564439842DE
:1048600020D0E5E7154B98421ED003F580639842AF
:104870001CD0A3F500639842DAD1182070476FF07E
:104880000D0070472B207047322070471D20704765
:104890001E2070471C207047362070473720704715
:1048A0002D2070472C207047192070471A20704720
:1048B0000018004000100040000401400044014086
:1048C000431C3AD02B4B98423AD01CD8A3F58053C6
:1048D000984237D00BD8A3F50063984234D003F543
:1048E0008063984232D0B0F1804F31D0FEE7224B46
:1048F00098422FD003F5806398422DD0A3F5006332
:1049000098422BD0F2E71D4B984229D00CD8A3F542
:104910008043984226D003F58063984224D0A3F5C3
:104920006443984222D0E1E7154B984220D003F52A
:1049300080639842DAD11A2070476FF00D007047FB
:104940002C207047322070471D2070471E20704772
:104950001C207047372070472B2070473620704747
:10496000182070471B2070472E2070472D2070475D
:1049700019207047001C0040001400400040014016
:104980000044014038B5FFF7B1FD04460068FFF769
:1049900039FFD4E91212FEF741F82068FFF732FF21
:1049A000FEF76EF822681046FFF78AFF05461046AC
:1049B000FFF728FF85420BD02846D4E91212FEF7F4
:1049C0002DF82068FFF77CFFBDE83840FEF758B8A7
:1049D00038BD00002DE9F04F89B004468A46406D8D
:1049E0008F499846129B01939146FFF723FD8D490D
:1049F0008346A06DFFF71EFD8B490646E06DFFF76D
:104A000019FD8A490546206EFFF714FD0746BBF1E4
:104A1000000F00F00281A26D013202D0002E00F0E2
:104A2000FC80E26D013202D0002D00F0F680226E93
:104A3000013202D0002F00F0F08031465846FFF7D7
:104A400020FD29462060FFF71CFD39462060FFF756
:104A500018FD2060002800F0E080754B98424FD18F
:104A600003F594335A6A42F010025A625A6A22F0ED
:104A700010025A62002202925A6C42F010025A64EA
:104A80005B6C03F010030293029B2523A4F86430AF
:104A90006349606DFFF7B6FC1EB16249A06DFFF778
:104AA000B1FC2DB16049E06DFFF7ACFC4FF48075AF
:104AB0002FB15E49206E45F40075FFF7A3FC94F812
:104AC00065205C4B94F96400C4F80C90271D43F8F2
:104AD00022702368C4E9013A019B0022C4E904382A
:104AE0000C23C4E9063522620121FDF797FF384601
:104AF000002E40F08D8009B0BDE8F04FFEF734BDC8
:104B00004D4B984217D103F5FA331A6A42F400323A
:104B10001A621A6A22F400321A62002203921A6C94
:104B200042F400321A641B6C03F400330393039BBA
:104B30004FF49373AAE7414B984217D103F5F8332A
:104B40001A6A42F480221A621A6A22F480221A62D5
:104B5000002204921A6C42F480221A641B6C03F443
:104B600080230493049B40F227238FE7344B984221
:104B700017D103F5F6331A6A42F400221A621A6A50
:104B800022F400221A62002205921A6C42F40022DA
:104B90001A641B6C03F400230593059B4FF44D73BB
:104BA00074E7284B984217D103F5F4331A6A42F49C
:104BB00080121A621A6A22F480121A620022069285
:104BC0001A6C42F480121A641B6C03F4801306936F
:104BD000069B40F2354359E71B4B98427FF458AF90
:104BE00003F592335A6A42F020025A625A6A22F05E
:104BF00020025A62002207925A6C42F020025A6444
:104C00005B6C03F020030793079B40F247533DE79B
:104C100009B0BDE8F04FFEF778BC09B0BDE8F08FF1
:104C2000BC8F00082C8F0008E48E00089C8E0008C2
:104C3000001001406009002000440040004800408E
:104C4000004C0040005000400014014010B4019C92
:104C500020B101945DF8044BFFF7BCBE5DF8044B36
:104C6000704700000A4A0B4B126813B553F82240F4
:104C700009492046FFF7DEFB40B1084800234465A0
:104C80001A4600934FF41651FFF7A4FE02B010BD70
:104C9000AC930008EC930008BC8F00084000002093
:104CA00008B5074B90F8652053F82200FEF7D4FEB4
:104CB00000F02200A0F122035842584108BD00BF75
:104CC0006009002008B5074B90F8652053F82200D2
:104CD000FEF7C2FE00F02100A0F121035842584126
:104CE00008BD00BF600900202DE9F0472C4C0646A6
:104CF0000D46FDF77BFE94F86530052B074614D86A
:104D000094F86520274B53F82240A4F1040840464C
:104D1000FFF7D8FF00283CD14FF47A73AAB231468E
:104D20002046FEF754FC50B90AE01F4A1F4B126898
:104D30001F4953F822804046FFF77CFB18BB002533
:104D40002846BDE8F0875AF8233043B994F8653017
:104D50000133DBB2052B84F86530F4D90CE0494609
:104D60004046FFF767FB94F865205AF822301B682D
:104D70008342EBD1052AC3D9FFF774FF94F865305D
:104D8000052BBDD9DBE7DFF81CA0DFF8249000235A
:104D9000E0E7FDF72BFEC01BB0F57A7FB7D3CEE777
:104DA0004000002060090020AC930008EC9300084C
:104DB000BC8F000870B50E46054610B94FF0FF30A5
:104DC00070BDFFF76DFF04460028F7D12946012288
:104DD00011F8663F337095F86500034B53F82000D7
:104DE000FEF759FE2046EBE76009002038B50D4676
:104DF0000446B8B1FFF754FFA0B994F96400E56424
:104E0000FDF74CFE94F86500074B04F1660153F87A
:104E100020000122FEF73FFE94F96400BDE838400F
:104E2000FDF72EBE38BD00BF6009002038B515461D
:104E30000446B8B1016590F96400FDF72FFEE36EFA
:104E4000B4F8761094F8650013FA81F1064BAAB213
:104E500053F82000FEF709FC94F96400BDE83840DF
:104E6000FDF70EBE38BD00BF6009002048B1836D5C
:104E7000013306D190F86520024B53F82200FEF76B
:104E8000BBBD70476009002048B1836D013306D176
:104E900090F86520024B53F82200FEF7C5BD70471D
:104EA00060090020836C04381847C36C0438184725
:104EB00030B5044650F804391D6815F0010585B079
:104EC00012D0002200921A6800925B680093009B47
:104ED000FFF7E6FE40BB012204F16201204605B067
:104EE000BDE83040FEF7D7BD196811F0020106D0C9
:104EF00001951A6801925B680193019BE8E71A68C3
:104F000012F0040206D002911A6802925B680293C2
:104F1000029BDDE719680907DAD503921A68039244
:104F20005B680393039BD3E705B030BD08B525202C
:104F3000FDF7DAFD024B1868BDE80840FEF712BC29
:104F40006009002008B52620FDF7CEFD034B586808
:104F500018B1BDE80840FEF705BC08BD6009002097
:104F600008B52720FDF7C0FD034B986818B1BDE8D0
:104F70000840FEF7F7BB08BD6009002008B53420E3
:104F8000FDF7B2FD024BD868BDE80840FEF7EABB6A
:104F90006009002008B53520FDF7A6FD024B186911
:104FA000BDE80840FEF7DEBB6009002008B54720D9
:104FB000FDF79AFD024B5869BDE80840FEF7D2BBE9
:104FC000600900204FF0FF3070474FF400534B60F2
:104FD0000020704701207047002070470020704774
:104FE000FEE70000024B16221A604FF0FF307047B8
:104FF000400C00200120704710B594B0142200210D
:1050000009A801F03CFD1422002103A801F037FD9E
:1050100000231E4A0193116C41F080511164126CFF
:1050200002F080520192019A194A0293116841F4E8
:10503000804111601268022402F480420820CDE908
:105040000E430292A823CDE91003029A089401218D
:105050001022072308A8CDE90B1212941393FDF731
:10506000E3FD00B1FEE70F23CDE9033405904FF4D3
:10507000A0524FF48053052103A8CDE90623FDF784
:10508000AFFF00B1FEE714B010BD00BF0038024012
:1050900000700040B0F85031B0F84C219BB264333E
:1050A0009B1A6422B3FBF2F002FB10307047B0F899
:1050B0005031B0F84C219BB293421ABFD0F8443122
:1050C000985C4FF0FF30704790F84E31B0F85201C5
:1050D000C0B2834227BFC3F16303C018C01A00F1F6
:1050E000FF30704707B503688DF807105B68012231
:1050F0000DF10701984703B05DF804FB13B50DF1FE
:1051000007010446FFF756FEB0B9B4F874309BB2FD
:1051100064220133B3FBF2F102FB1133B4F87020C7
:10512000934209D0B4F87420A16E9DF8070092B2A2
:105130009BB28854A4F8743002B010BDB0F8762049
:10514000816F38B511FA82F26424B2FBF4F104FBEA
:10515000112292B2A0F87620B0F87610B0F8722042
:1051600089B28A4216D0B0F87650B0F87610ADB257
:105170002244521B89B2611A92FBF4F504FB1522FA
:105180008A4228BF0A4682670349FFF74FFE4FF065
:10519000FF3038BD0020FCE73D5100082DE9F84301
:1051A000036804469B688846154698470123237484
:1051B000D4F83431B4F84E6101338146C6F1640647
:1051C00009D194F8583133B1002384F8583104F1EF
:1051D000DC00FFF74BFE236820469B6898470028B9
:1051E000F9D02F46BE4228D34F4526D8B4F84E31C9
:1051F000D4F84801DA19642A184433D83A464146AB
:1052000001F085FD3E46B4F84E3164223B4404F182
:10521000DC07B3FBF2F102FB1133A4F84E31384640
:10522000FFF750FD30B91649C4F85461324638468C
:10523000FFF7FCFD2846BDE8F8834E45236828BFEC
:105240004E46324641465B682046984723682046D2
:105250009B689847BF1BB044B4F84E618146C6F1C5
:105260006406BFE7C3F164063246414601F04FFDD4
:10527000D4F84801BA1B08EB060101F048FDC2E76B
:105280003D510008C0F83831009BC0F83C319142D4
:1052900008BF4FF0FF3100F11103C0E94C21C0F805
:1052A000443100F175020023A0F85031C0E95223C7
:1052B000A0F852317047037C70B504460D46A3B187
:1052C000FDF794FB0646B4F84E21B4F852319BB278
:1052D0009A420AD0002DF8D0FDF788FB801B85424A
:1052E000F1D8B4F85231A4F84E3170BD0021FFF767
:1052F000E2BF0000CBB2512B08D80E4A52F823303F
:1053000001F4E0611943C0F83411704701F0C002A4
:10531000C02A0CD1CF2B0AD8074B01F03F0201F471
:10532000E06153F82220034B53F82230EAE74FF0B4
:10533000FF31E8E7EC930008AC930008CBB2512BA7
:1053400008D80E4A52F8233001F4E0611943C0F83E
:105350003011704701F0C002C02A0CD1CF2B0AD8FF
:10536000074B01F03F0201F4E06153F82220034BA8
:1053700053F82230EAE74FF0FF31E8E7EC930008FA
:10538000AC93000873B54FF47A7316460022C0E957
:1053900001231D4B03604FF0FF33C0F834311B4B2A
:1053A000984204460D4615D1C121FFF7A3FFC02145
:1053B000FFF7C4FF012E4FF0FF3308BFC4F83431AC
:1053C00000932046D4E94C214FF0FF33FFF75AFFFA
:1053D00002B070BD0E4B0F491A680F4B53F82200F4
:1053E000FFF728F8854202D1C1212046DDE70B49AD
:1053F0002846FFF730F80749C4F834012846FFF77C
:105400002AF8C4F83001D5E744950008780900204F
:10541000AC930008BC8F0008EC9300082C8F0008A8
:10542000D0F83431013310B504460ED10368DB687F
:10543000984794F8583143B9012384F8583104F15E
:10544000DC00BDE81040FFF71FBD10BD02F00703F0
:10545000023BDBB2042B73B5144680F8592198BF88
:105460001B4AC0F85C1198BFD25C04F0300388BFBF
:105470000022302B054607D101324FF4C063082AC1
:1054800009D0092A1BD0FEE714F020031CD00132FA
:105490004FF48063F3E70022C4F3C00405F1DC0697
:1054A000640330460094FFF7D1FB2846FFF7B8FFAE
:1054B0000849304602B0BDE87040FFF797BC4FF492
:1054C0008052E9E71A46E7E7082AFBD0DBE700BF8E
:1054D00034950008FD50000810B50446FFF7A0FF02
:1054E000B4F85021B4F84C3192B29A420DD0D4F8AD
:1054F0004421D05C0133DBB26422B3FBF2F102FB46
:105500001133DBB2A4F84C3110BD4FF0FF30FBE794
:10551000024903480022FFF735BF00BF004C00409E
:105520007809002070B505460C46084649B1FAF7DF
:1055300039FE2B680246214628465B68BDE870406C
:10554000184770BD03688A685B680968184708B522
:10555000FFF7E8FF08BD000008B50249FFF7E2FFCA
:1055600008BD00BF278C000838B50546FFF7DAFFF5
:1055700004462846FFF7F0FF204438BD38B50546FD
:10558000FFF7E0FF04462846FFF7E6FF204438BD5A
:10559000FFF7EABF70B50D46144630B1461E012E26
:1055A00005D811462846FFF79FFB204670BD0368CB
:1055B0005B689847F9E710B5044600F0B5F9E0607C
:1055C000236820465B699847002808DA00F0ACF9A8
:1055D000E368C01AA3689842F2D34FF0FF3010BDC1
:1055E000F8B507460D468E180C46B44201D1601B33
:1055F000F8BD3846FFF7DFFF031EF8DB04F8013B78
:10560000F3E72DE9F0410746884616461D4673B17B
:1056100000243846FFF7CFFF031E05DB434503D0C8
:1056200033550134A542F4D12046BDE8F0811C4633
:10563000FAE710B50446006800F098F9204610BD5E
:1056400010B50446006808B100F090F90023C4E9E1
:105650000133236010BD38B504460D4600680131A2
:1056600000F02EFA10B1C4E90005012038BD03682E
:1056700010B5044613B143688B4207D22046FFF7AA
:10568000EAFF20B1A3680BB922681370012010BD96
:1056900070B50E46114604461546FFF7E8FF20B9DF
:1056A0002046FFF7CDFF204670BD2068A56031463B
:1056B00001F025FBF7E738B50023C0E900330446C5
:1056C00083600D4639B10846FAF76CFD294602465B
:1056D0002046FFF7DDFF204638BD884210B50B4657
:1056E000044604D0096821B19A68FFF7D1FF20462B
:1056F00010BDFFF7A5FFFAE710B500230446C0E987
:1057000000338360FFF7E9FF204610BD70B5856860
:1057100004460E4609B9002070BD62B11544294601
:10572000FFF7A5FF0028F6D02068A368314618448B
:1057300001F0E5FAA5600120EEE707B500238DF83A
:105740000410012201A98DF80530FFF7DFFF03B037
:105750005DF804FB10B50446FFF7EFFF10B92046D3
:10576000FFF76EFF204610BD08B50320FDF744F992
:10577000BDE8084000F0E8B808B5AFF30080FBF7DB
:10578000D5FAFBF71FFB00F0D1F8FAE7DFF834D0C9
:10579000FEF782FE0C480D490D4A002302E0D45862
:1057A000C4500433C4188C42F9D30A4A0A4C00236B
:1057B00001E013600432A242FBD301F079FAFFF753
:1057C000DBFF704700000220000000208402002060
:1057D000E097000884020020480C0020FEE700004B
:1057E000C3B2512B2DE9F0410D462AD82C4A52F86C
:1057F000233000F4E0641C43621C4ED0294EC4F3F5
:10580000031704F00F0856F8273023FA08F3DB07D4
:1058100010D525492046FEF758FD18B32046FEF75F
:10582000D9FB56F82730012202FA08F223EA0203D4
:1058300046F82730052D1FD8DFE805F01F2B252758
:10584000292D00F0C002C02A27D1CF2B25D8174B15
:1058500000F03F0200F4E06453F82220104B53F8AC
:105860002230C8E712492046FEF72FFD0028D8D085
:105870002046FEF7C9FBD4E7FEE700212046BDE83D
:10588000F041FEF731BD1021F8E72021F6E70321B2
:10589000F4E70121F2E70921F0E7BDE8F08100BF5C
:1058A000EC930008D80A002088930008AC93000805
:1058B0004C900008C3B2512B17D8174A52F8233026
:1058C00000F4E0601843C0F30313082B98BF134A99
:1058D00000F00F0098BF52F82320114B88BF002220
:1058E00053F82030A9B19361704700F0C002C02A7C
:1058F0000CD1CF2B0AD80B4B00F03F0200F4E06034
:1059000053F82220044B53F82230DBE74FF0FF30EE
:10591000D9E71B04E7E700BFEC9300081000002064
:10592000448E0008AC930008FEF79CBB08B5044BFE
:105930002BB10448FFF7AEFB08B1AFF3008008BD00
:105940000000000078090020FEF7DCBB002100F019
:10595000EFBE0A22002100F071BF0000024B014699
:10596000186800F02DB800BF34020020024B014639
:10597000186801F003BA00BF3402002070B50F4E62
:105980000C463168054611B9FCF7EAFD3060214646
:105990002846FCF7E5FD431C03D14FF0FF342046B9
:1059A00070BDC41C24F00304A042F8D0211A28467C
:1059B000FCF7D6FD0130F2D1EFE700BFFC0A002072
:1059C0002DE9F843CD1C25F0030508350C2D38BF13
:1059D0000C25002D064601DBA94204D90C233360B7
:1059E0000020BDE8F883DFF8D480FCF7F7FDD8F895
:1059F00000301C4644BB29463046FFF7BFFF431C1E
:105A0000044658D1D8F800402746002F43D1002C37
:105A10004BD023683946304604EB0309FCF7A0FD60
:105A2000814542D121686D1A29463046FFF7A6FF0D
:105A300001303AD023682B442360D8F800305A68EC
:105A400062BBC8F800700FE02268521B20D40B2AFA
:105A500017D96119A342256018BF5960636808BF50
:105A6000C8F8001062514B603046FCF7C5FD04F1E8
:105A70000B00231D20F00700C21A1CBF1B1AA350E5
:105A8000AFE76268A3420CBFC8F800205A60EBE79A
:105A900023466468AEE73C467F68B6E71A465B6813
:105AA000A342FBD100235360DEE70C233360304672
:105AB000FCF7A2FD94E70560D6E700BF000B0020CD
:105AC000024B0A460146186800F002B83402002072
:105AD0002DE9F041074614460D4621B9BDE8F041D5
